:100000000C94E3000C940B010C940B010C940B0169
:100010000C940B010C940B010C940B010C940B0130
:100020000C940B010C940B010C9423070C94B50554
:100030000C940B010C940B010C940B010C940B0110
:100040000C940B010C940B010C940B010C940B0100
:100050000C940B010C940B010C940B010C94A20258
:100060000C940B010C940B010C940B010C940B01E0
:100070000C940B010C940B010C940B010C940B01D0
:100080000C940B010C940B010C940B010C940B01C0
:100090000C940B010C940B010C940B010C940B01B0
:1000A0000C940B010C940B010C940B01D101D401A5
:1000B000C301C701CD01F501F501F501D801DC014E
:1000C000E001E601EA01F501F0010000000200098B
:1000D0000F0000030401000C0000000004080201EE
:1000E0001040804010204080408008020401804081
:1000F0002010020110801020404004040404040376
:1001000004050202020204030202020206060606B7
:100110000606040402020204000000002300260078
:1001200029002C002F0000000000250028002B00D3
:100130002E00310000000000240027002A002D00BE
:10014000300012010002EF0201404123398000011A
:100150000102030112010002000000404123398026
:1001600000010102030141726475696E6F204C4CFD
:100170004300526F626F74204D6F746F72000403FE
:100180000904080B00020202010009040000010238
:1001900002000005240010010524010101042402CD
:1001A000060524060001070581031000400904012B
:1001B00000020A0000000705020240000007058354
:1001C000024000009B0811241FBECFEFDAE0DEBF23
:1001D000CDBF11E0A0E0B1E0E6EBF2E102C0059096
:1001E0000D92A433B107D9F721E0A4E3B1E001C037
:1001F0001D92A83AB207E1F711E0C6ECD1E004C0C5
:100200002297FE010E945509C43CD107C9F70E94FC
:100210008F020C9459090C94000061E080910E014A
:100220000E94F60161E080910C010E94F60160E0FD
:1002300080910A010E94F60160E0809108010E940D
:10024000F60161E0809106010E94F60161E0809173
:1002500004010E94F60161E0809102010E94F60112
:1002600061E0809100010C94F60161E080910E0143
:100270000E942F0261E080910C010E942F02809168
:100280000A010E94650290933701809336018091A4
:1002900008010E94650290933501809334012091FA
:1002A0003601309137012130310571F4019761F445
:1002B00061E0809106010E942F0260E080910401BC
:1002C0000E942F0261E00BC060E0809106010E9455
:1002D0002F0260E0809104010E942F0260E0809173
:1002E00002010E942F0260E0809100010E942F0213
:1002F00080913601909137010197D1F480913401BA
:1003000090913501892BA1F461E0809106010E9452
:100310002F0260E0809104010E942F0260E0809132
:1003200002010E942F0261E0809100010E942F02D1
:100330008091360190913701892BD1F4809134015D
:10034000909135010197A1F460E0809106010E942F
:100350002F0261E0809104010E942F0261E08091F0
:1003600002010E942F0260E0809100010C942F0294
:10037000089590E0FC013197EF30F105B0F5EA5AAD
:10038000FF4F0C945309809180008F7703C08091B8
:1003900080008F7D80938000089580918000877F0A
:1003A000F9CF84B58F7702C084B58F7D84BD089561
:1003B000809190008F7707C0809190008F7D03C05F
:1003C00080919000877F8093900008958091C00075
:1003D0008F7703C08091C0008F7D8093C000089507
:1003E0008091C200877F8093C2000895CF93DF93EE
:1003F00090E0FC01E452FF4F2491FC01E650FF4FD6
:100400008491882349F190E0880F991FFC01EC5CEE
:10041000FE4FA591B4918A5D9E4FFC01C591D49188
:100420009FB7611108C0F8948C91209582238C931A
:10043000888182230AC0623051F4F8948C91322F63
:10044000309583238C938881822B888304C0F89411
:100450008C91822B8C939FBFDF91CF9108950F9346
:100460001F93CF93DF931F92CDB7DEB7282F30E0D5
:10047000F901E653FF4F8491F901E452FF4F1491C3
:10048000F901E650FF4F04910023C9F0882321F0C1
:1004900069830E94B9016981E02FF0E0EE0FFF1F30
:1004A000EA5DFE4FA591B4919FB7F8948C916111CC
:1004B00003C01095812301C0812B8C939FBF0F90A7
:1004C000DF91CF911F910F910895CF93DF93282F44
:1004D00030E0F901E653FF4F8491F901E452FF4FF8
:1004E000D491F901E650FF4FC491CC2391F08111D2
:1004F0000E94B901EC2FF0E0EE0FFF1FE85EFE4F07
:10050000A591B4912C912D2381E090E021F480E01D
:1005100002C080E090E0DF91CF91089508950E949D
:1005200037030E948E0281E491E00E94A6070E9498
:100530000D01C0E0D0E00E9435012097E1F30E9458
:100540000000F9CF1F920F920FB60F9211242F9334
:100550003F938F939F93AF93BF9380913901909175
:100560003A01A0913B01B0913C013091380123E068
:10057000230F2D3720F40196A11DB11D05C026E8DB
:10058000230F0296A11DB11D2093380180933901DC
:1005900090933A01A0933B01B0933C0180913D01BF
:1005A00090913E01A0913F01B09140010196A11DA3
:1005B000B11D80933D0190933E01A0933F01B09304
:1005C0004001BF91AF919F918F913F912F910F90DB
:1005D0000FBE0F901F9018953FB7F89480913D0182
:1005E00090913E01A0913F01B091400126B5A89B9A
:1005F00005C02F3F19F00196A11DB11D3FBF662711
:10060000782F892F9A2F620F711D811D911D42E055
:10061000660F771F881F991F4A95D1F70895CF92CB
:10062000DF92EF92FF92CF93DF936B017C010E94E8
:10063000EC02EB01C114D104E104F10489F00E9441
:10064000B9070E94EC026C1B7D0B683E734090F36F
:1006500081E0C81AD108E108F108C851DC4FEACF9F
:10066000DF91CF91FF90EF90DF90CF900895789435
:1006700084B5826084BD84B5816084BD85B58260A7
:1006800085BD85B5816085BDEEE6F0E08081816045
:100690008083E1E8F0E01082808182608083808145
:1006A00081608083E0E8F0E0808181608083E1E91F
:1006B000F0E0808182608083808181608083E0E9D6
:1006C000F0E0808181608083E1ECF0E080818460F3
:1006D0008083808182608083808181608083E3EC7D
:1006E000F0E0808181608083E0ECF0E080818260D6
:1006F0008083E2ECF0E0808181608083EAE7F0E0D3
:100700008081846080838081826080838081816039
:1007100080838081806880830895615030F02091CB
:10072000F100FC0120830196F8CF289884E680939D
:100730004A0108954091450150914601209143019D
:100740003091440142175307B4F49091E80095703A
:10075000E1F39091E80092FD19C08093F10080913F
:1007600045019091460101968F739927892B19F4C1
:100770008EEF8093E80080914501909146010196AB
:10078000909346018093450181E0089580E00895AB
:10079000CF92DF92EF92FF920F931F93CF93DF934D
:1007A0001F92CDB7DEB7082F162FF42E862F880F95
:1007B0008E5F99830E949A0383E00E949A03E02E41
:1007C000C02E9981D92E8C2D8E19811798F4F6019F
:1007D000F7FE02C0849101C080810E949A03082F15
:1007E00080E00E949A038023FFEFCF1ADF0A811175
:1007F000EACF01C081E00F90DF91CF911F910F915F
:10080000FF90EF90DF90CF9008958091D7008160A6
:100810008093D70080EA8093D80089B5806189BD34
:1008200089B5826089BD09B400FEFDCF61E070E04A
:1008300080E090E00E940F038091D8008F7C80615F
:100840008093D8008091E000807F8093E00008953D
:10085000CF93DF931F92CDB7DEB71982CE010196F9
:100860000E9417080E943F09BE016F5F7F4F0E94E0
:10087000B80889810F90DF91CF9108952FB7FC01BF
:100880002083F89467706093E9000895CF93DF9315
:100890001F92CDB7DEB7682FCE0101960E943E04AD
:1008A0008091F20099819FBF0F90DF91CF910895C1
:1008B000FF920F931F93CF93DF9300D0CDB7DEB796
:1008C000F62E8A0190914901992311F057FF03C038
:1008D0008FEF9FEF2BC0682FCE0101967A830E9485
:1008E0003E048091F20090E0A8017A818017910780
:1008F0000CF4AC01EF2DF72FF40E84E6FE1639F060
:10090000289880934A019091F1009193F7CF411577
:10091000510521F08091F200882321F089818FBF59
:10092000CA0104C08BE68093E800F8CF0F900F90C7
:10093000DF91CF911F910F91FF900895CF93DF9397
:100940001F92CDB7DEB741E050E0BE016F5F7F4F31
:100950000E945804019719F4898190E002C08FEF3A
:100960009FEF0F90DF91CF910895CF93DF931F9268
:10097000CDB7DEB7682FCE0101960E943E0490915C
:10098000E800892F807295FF04C09091F20080E406
:10099000891B99819FBF0F90DF91CF9108956F922E
:1009A0007F928F929F92AF92BF92CF92DF92EF92FF
:1009B000FF920F931F93CF93DF931F92CDB7DEB7B4
:1009C000782E7B01C42EB52E80914901882369F0D1
:1009D000042F152F8AEFD82E872D8072982E9AE338
:1009E000A92E872D8074882E11C08FEF9FEF57C0DE
:1009F000872D0E94B504682E81110CC0DA94A9F3EA
:100A000061E070E080E090E00E940F0301151105A5
:100A100079F73BC0282F30E0021713070CF4602E43
:100A2000672DCE0101960E943E048091E80085FF6B
:100A300029C0262D30E0021B130B992039F06A944F
:100A40008FEF6816B1F01092F100F9CFF701862D03
:100A500077FE07C0815058F094919093F100319641
:100A6000F9CF815020F091919093F100FACFE20EEE
:100A7000F31E8091E80085FF0FC00115110511F4E8
:100A800081100AC089818FBFC1CF5D9884E68093B1
:100A90004B018C2D9B2D03C0A092E800F3CF0F904B
:100AA000DF91CF911F910F91FF90EF90DF90CF904A
:100AB000BF90AF909F908F907F906F90089510920D
:100AC000E9001092460110924501909344018093F1
:100AD00043010895CF92DF92FF920F931F93CF931C
:100AE000DF9300D0CDB7DEB7F82E8A016B01011578
:100AF0001105B1F0F601F7FE02C0849101C08081BA
:100B000049835A830E949A0301501109FFEFCF1ABB
:100B1000DF0A49815A818111EACF8FEF9FEF01C02F
:100B2000CA010F900F90DF91CF911F910F91FF900D
:100B3000DF90CF9008951F93CF93DF931F92CDB78F
:100B4000DEB7162F2091E80022FFFCCF612F7983BA
:100B50000E948D038BEF8093E800812F7981972F7E
:100B60000F90DF91CF911F9108951F920F920FB6B2
:100B70000F921124DF92EF92FF920F931F932F9306
:100B80003F934F935F936F937F938F939F93AF9315
:100B9000BF93EF93FF93CF93DF93CDB7DEB76C97FF
:100BA000DEBFCDBF1092E9008091E80083FF23C132
:100BB00068E0CE0145960E948D0382EF8093E800A5
:100BC0003D8937FF05C08091E80080FFFCCF03C05E
:100BD0008EEF8093E800832F807609F0F0C02E8995
:100BE0004F89D88C21110CC0303829F480914801EC
:100BF0008093F10002C01092F1001092F100F4C055
:100C0000842F90E09D29213049F43111EDC00197E6
:100C100009F0EAC0809148018D7F0AC0233059F461
:100C20003111E2C0019709F0DFC080914801826074
:100C300080934801D9C0253041F48091E80080FFBD
:100C4000FCCF40684093E300CFC0263009F08DC050
:100C5000EB8CFC8C22E0D2122CC080E090E00E9451
:100C60005F050E94280499E08E010F5F1F4FF80175
:100C7000292F11922A95E9F79983DA8291E09E83D0
:100C800090EA98879AEF9987209145013091460123
:100C9000275F3F4F3C832B838D83C7010E945F05F5
:100CA00049E050E0B80180E00E946A050E942804F3
:100CB0009BC0C7010E945F050E943F09BE016B5E99
:100CC0007F4F0E94E108009719F00CF08DC090C092
:100CD00081E0D8120EC08B8D9C8D089719F481E0AD
:100CE000809342018091420181112FC064E571E03F
:100CF00031C0E3E0DE127CC08F89882349F1823065
:100D000029F440E86BE082E791E01CC0813029F4CF
:100D100040E86BE086E691E015C0833009F068C0DA
:100D20000E943F098E010F5F1F4FB8010E9400090A
:100D3000F80101900020E9F73197E01BF10B40E04A
:100D40006E2FC8010E94C8034DC062E471E002C06A
:100D50006EE771E06115710509F44AC0FB01449129
:100D600050E080E80E946A053FC0273009F440C087
:100D7000283021F481E08093F10036C02930A1F5BC
:100D80003370B1F5E1E1F1E081E021E036E39081FB
:100D9000992361F08093E9002093EB009191909367
:100DA000EC003093ED008F5F873089F78EE78093FA
:100DB000EA001092EA008F898093490115C08B8D5B
:100DC0009C8D0E945F05898D811105C0CE014596DD
:100DD0000E94220807C00E943F09BE016B5E7F4F40
:100DE0000E941F09882321F08EEF8093E80003C042
:100DF00081E28093EB006C960FB6F894DEBF0FBED5
:100E0000CDBFDF91CF91FF91EF91BF91AF919F91B6
:100E10008F917F916F915F914F913F912F911F9192
:100E20000F91FF90EF90DF900F900FBE0F901F90EB
:100E300018958093E9008091F200882319F08AE3E5
:100E40008093E80008951F920F920FB60F9211241D
:100E50002F933F934F935F936F937F938F939F93C2
:100E6000AF93BF93CF93EF93FF93C091E100809135
:100E7000E100837F8093E1008093E100C3FF0FC016
:100E80001092E90081E08093EB001092EC0082E385
:100E90008093ED001092490188E08093F000C2FF3A
:100EA00019C083E00E94190780914B01882339F013
:100EB00080914B01815080934B01882389F180916F
:100EC0004A01882339F080914A01815080934A0178
:100ED000882341F1C4FF10C08091E2008E7E8160C2
:100EE0008093E2008091E1008F7E8093E100809109
:100EF00047018E7E806111C0C0FF16C08091E20064
:100F00008E7E80618093E2008091E1008E7E8093EE
:100F1000E100809147018E7E81608093470104C08B
:100F20005D9ACDCF289AD6CFFF91EF91CF91BF9107
:100F3000AF919F918F917F916F915F914F913F9171
:100F40002F910F900FBE0F901F901895109249018E
:100F500010924801109247010E940504E1EEF0E072
:100F600080818E7E80838DE08093E200559A209A66
:100F700008950895CF93DF931F92CDB7DEB76983AD
:100F8000DC01ED91FC910280F381E02D41E050E025
:100F9000BE016F5F7F4F09950F90DF91CF9108954C
:100FA000CF93DF93EC018C859D8597FF05C082E090
:100FB0000E949E049D878C878C859D85DF91CF91B3
:100FC000089583E00C941907FC018485958597FDAD
:100FD00006C082E00E94460490E00196089582E0F7
:100FE0000E94460490E00895FC018485958597FD54
:100FF00005C02FEF3FEF35872487089582E00C94DA
:101000009E04CF93DF93EC0180912201882331F07D
:1010100083E00E94CF041816190634F081E090E0B6
:101020009B838A8380E090E0DF91CF910895FC015B
:1010300020812E5F208342E450E062E871E080E886
:101040000C946A05FC0121818081813A59F4213296
:1010500009F05CC047E050E06BE171E080E00E9485
:101060006A0567C0813209F051C0233289F4838157
:1010700090E0982F88273281832BA0E0B0E0809306
:10108000170190931801A0931901B0931A010FC092
:10109000203239F467E070E08BE191E00E949B051B
:1010A0000AC0223221F482818093220104C02D7F64
:1010B000203209F03EC080911B0190911C01A0914B
:1010C0001D01B0911E01803B9440A105B10501F5C1
:1010D0008091220180FD1CC0809100089091010840
:1010E0009093FF0A8093FE0A87E797E790930108A1
:1010F000809300082BE088E190E00FB6F894A89563
:10110000809360000FBE2093600013C080E00895BC
:1011100088E10FB6F89480936000109260000FBED3
:10112000A8958091FE0A9091FF0A90930108809300
:10113000000881E0089510924F0110924E0188EE50
:1011400093E0A0E0B0E08093500190935101A09310
:101150005201B093530187E291E090934D01809347
:101160004C018FEF9FEF90935901809358010895A0
:10117000EF92FF920F931F93CF93DF937B01FC01BC
:10118000C281D38100E010E0209781F0E881F981ED
:101190000280F381E02DB701CE01099597FD08C0CB
:1011A000080F191F0884D985C02DEECFC80102C0D1
:1011B0008FEF9FEFDF91CF911F910F91FF90EF90F5
:1011C00008950F931F93CF93DF938B01FC01C2818E
:1011D000D381209771F0E881F9810480F581E02DB9
:1011E000B801CE010995009731F40884D985C02D46
:1011F000F0CF80E090E0DF91CF911F910F910895A3
:101200000F931F93CF93DF938B01FC01C281D38196
:10121000209771F0E881F9810680F781E02DB8010F
:10122000CE010995080F111D0884D985C02DF0CF76
:10123000F8011082DF91CF911F910F9108950F93C4
:101240001F93CF93DF938B01FC01C281D381209741
:1012500071F0E881F9810190F081E02DB801CE01B3
:101260000995811106C00884D985C02DF0CF80E092
:1012700001C081E0DF91CF911F910F91089580917E
:10128000A00181110DC082E080939C0184E08093D5
:101290009D0110929F0110929E0181E08093A00118
:1012A0008CE991E00895EE0FFF1F0590F491E02D79
:0612B0000994F894FFCF41
:1012B60007000600050004000C000B0002000100F8
:1012C60000C18081000000FFFFFFFF00E100000079
:1012D60000000000000000BA070108E407F407D088
:0412E60007E1070015
:1070000055C000006EC000006CC000006AC00000E7
:1070100068C0000066C0000064C0000062C00000DC
:1070200060C000005EC00000FCC400005AC0000048
:1070300058C0000056C0000054C0000052C00000FC
:1070400050C000005DC000004CC000004AC00000FD
:1070500048C0000046C0000044C0000042C000001C
:1070600040C000003EC000003CC000003AC000002C
:1070700038C0000036C0000034C0000032C000003C
:1070800030C000002EC000002CC000002AC000004C
:1070900028C0000026C0000024C0000022C000005C
:1070A00020C000001EC000001CC0000011241FBE34
:1070B000CFEFDAE0DEBFCDBF11E0A0E0B1E0E6E463
:1070C000FFE702C005900D92AC3AB107D9F711E085
:1070D000ACEAB1E001C01D92A53CB107E1F74FD386
:1070E00030C78ECFF89410926F001092810081E02B
:1070F00085BF15BE47985D9A289A0C9400000895A4
:107100001F920F920FB60F9211242F938F939F937C
:10711000EF93FF9310928500109284008091AC0150
:107120009091AD01009741F001979093AD0180934C
:10713000AC01892B09F45D9A8091AE019091AF0169
:10714000009741F001979093AF018093AE01892B96
:1071500009F4289A8091B2019091B301019690931D
:10716000B3018093B201E0E0F0E0859194918F5FEC
:107170009F4F49F08091B0019091B1010196909399
:10718000B1018093B001FF91EF919F918F912F9169
:107190000F900FBE0F901F90189584E08093E90028
:1071A0000DC08091E8008B778093E80003C08EB318
:1071B000882351F08091E80082FFF9CF8091E800A8
:1071C00085FFEFCF8091F1000895982F83E08093A1
:1071D000E9008091E80085FD0DC08091E8008E7780
:1071E0008093E80003C08EB3882369F08091E800A3
:1071F00080FFF9CF9093F1005D9884E690E0909342
:10720000AD018093AC0108954F925F926F927F928F
:107210008F929F92AF92BF92CF92DF92EF92FF92A6
:107220000F931F93CF93DF9384E08093E9008091C5
:10723000E80082FF57C2289884E690E09093AF015F
:107240008093AE01AADF182F853481F48CE49DE190
:107250009093B1018093B00107B600FCFDCFF9997E
:10726000FECF81E180935700E89503C0843519F47F
:1072700094DF8DE00DC28C34E1F38035D1F3843797
:1072800021F484E4A2DF80E003C2813611F489E5B1
:10729000FFC18134B1F481DF182F7FDF90E0880FC8
:1072A000991FAA2797FDA095BA2F312F330F20E001
:1072B000442737FD4095542F822B932BA42BB52BBD
:1072C000B8C1803711F483E5E3C1833549F4C0E0E8
:1072D000D1E089917ADF21E0C730D207D1F7D9C157
:1072E000863521F481E371DF80E3D2C1833731F445
:1072F00087E86BDF85E969DF8EE1CAC18536B9F4BD
:10730000E0E0F0E093E085E090935700E89507B661
:1073100000FCFDCF80935700E89507B600FCFDCF39
:10732000E058FF4FA0E7E030FA0771F7A2CF8237AD
:1073300039F4E1E0F0E089E0809357008491A8C13E
:10734000863439F4E0E0F0E089E0809357008491DE
:107350009FC18E3439F4E3E0F0E089E08093570078
:10736000849196C1813539F4E2E0F0E089E08093C0
:10737000570084918DC1823631F489E526DF80E0A3
:1073800024DF80E885C1823419F0873609F0E5C032
:107390001092B1011092B00100DF082FFEDEF82E2E
:1073A000FCDE682E8554823008F071C1902F80E099
:1073B000CF2DD0E0C82BD92B10926F00173609F0D3
:1073C0004BC081E180935700E895DD24CC24C39421
:1073D0003FC0E090B501F090B6010091B701109167
:1073E000B801B6E46B16D9F4ED2DF0E0EE29FF29D3
:1073F000E4918E2FEADEDD2081F082E090E0A0E0D3
:10740000B0E0E80EF91E0A1F1B1FE092B501F092D2
:10741000B6010093B7011093B801DC2418C0D8015D
:10742000C701B695A7959795879575D5CEDE82E06D
:1074300090E0A0E0B0E0E80EF91E0A1F1B1FE092EA
:10744000B501F092B6010093B7011093B8012197EE
:10745000209709F0BECF7DC08090B5019090B60115
:10746000A090B701B090B80196E4691609F05DC02C
:1074700083E0F40180935700E89507B600FCFDCF48
:1074800054C0F6E46F1661F5772031F1E090B50154
:10749000F090B6010091B7011091B8017EDED82EB0
:1074A000CC24852D90E08C299D29F7010C01409278
:1074B0005700E895112482E090E0A0E0B0E0E80EEB
:1074C000F91E0A1F1B1FE092B501F092B60100934E
:1074D000B7011093B80102C060DE582E742423C097
:1074E000E090B501F090B6010091B7011091B8019C
:1074F00016950795F794E79450DE682FC70113D5CA
:107500008091B5019091B601A091B701B091B801F9
:107510000296A11DB11D8093B5019093B601A09371
:10752000B701B093B801219704C0552477244424AF
:107530004394209709F0A5CF96E4691641F485E0BD
:10754000F40180935700E89507B600FCFDCF8DE06D
:107550003CDE82E080936F009CC0833471F4009124
:10756000B5011091B60119DE90E021E0F8010C019F
:1075700020935700E89511247CCE833619F5E090CE
:10758000B501F090B6010091B7011091B80105DE88
:10759000F701E16090E021E00C0120935700E895AD
:1075A000112482E090E0A0E0B0E0E80EF91E0A1F8E
:1075B0001B1FE092B501F092B6010093B701109342
:1075C000B80157CE8D3661F4E091B501F091B60166
:1075D00085E080935700E89507B600FCFDCF49CEC3
:1075E000823551F4E091B501F091B6010591149105
:1075F000812FEBDD802F4CC0843421F5E090B50164
:10760000F090B6010091B7011091B8011695079559
:10761000F794E794C2DD682FC70185D48091B50146
:107620009091B601A091B701B091B8010296A11D49
:10763000B11D8093B5019093B601A093B701B093AB
:10764000B80117CE843609F5E090B501F090B60187
:107650000091B7011091B801D801C701B695A7955F
:107660009795879558D4B1DD82E090E0A0E0B0E036
:10767000E80EF91E0A1F1B1FE092B501F092B60139
:107680000093B7011093B80104C08B3111F08FE360
:107690009CDD83E08093E9009091E8008091E80010
:1076A0008E778093E80095FF04C010C08EB38823C6
:1076B000C9F08091E80080FFF9CF8091E8008E77D3
:1076C0008093E80003C08EB3882361F08091E800C6
:1076D00080FFF9CF84E08093E9008091E8008B7708
:1076E0008093E800DF91CF911F910F91FF90EF9071
:1076F000DF90CF90BF90AF909F908F907F906F90D2
:107700005F904F9008959091BD01892F8F778132BE
:1077100049F58091BE018032A1F0813219F5913A8C
:1077200009F58091E800877F8093E8008CE091E084
:1077300067E070E027D28091E8008B778093E800C3
:107740000895913279F48091E800877F8093E80072
:107750008CE091E067E070E079D28091E8008E776C
:107760008093E800089582E061EC42E0D1D083E0AC
:1077700061E842E1CDD084E060E842E1C9C01F93F6
:10778000209100081092000844B714BE88E10FB69B
:10779000F89480936000109260000FBE80E8E0E0F3
:1077A000F0E00FB6F89480936100E09361000FBEA3
:1077B00031E035BF92E095BF3F9A209A559A809369
:1077C00061001092610047985D9A289A1092890092
:1077D0008AEF8093880090936F0083E0809381000C
:1077E000859194918F5F9F4F11F03093B401942F46
:1077F00041FF19C0809109012817A9F08093000862
:10780000789480911301882339F08091B20190918E
:10781000B3018F5E9240C8F310920008F89481E0A3
:10782000809313010CC090FF04C08091B4018823A1
:1078300051F493FF09C080910901281729F0809124
:10784000B401882309F04EDCD4D078941092B101B1
:107850001092B0011EEF20C0D7DC4BD38091B00155
:107860009091B10181549F4110F0109213018091C9
:10787000B9019091BA0101969093BA018093B90130
:10788000292F97FF03C0512F591B252F220F28178F
:1078900010F4479801C0479A809113018823E1F6BC
:1078A0008091E00081608093E0001CDC80E090E04B
:1078B0001F910895FA01923049F0933061F09130B0
:1078C000F9F484E191E022E130E01EC086E291E02B
:1078D0002EE330E019C0882329F484E691E024E007
:1078E00030E012C0813029F488E691E028E230E0EF
:1078F0000BC0823029F482E991E028E130E004C035
:1079000080E090E020E030E091838083C901089519
:107910008093E9008091EB0081608093EB001092EE
:10792000ED006093EC004093ED008091EE00881F25
:107930008827881F08958091BD0188238CF403C097
:107940008EB38823B1F08091E80082FFF9CF809157
:10795000E8008B778093E80008958EB3882349F080
:107960008091E80080FFF9CF8091E8008E778093C6
:10797000E8000895EF92FF920F931F9345D04CD0EB
:1079800008ED10E0F80180818F7780838081806826
:10799000808380818F7D808319BC1EBA1092BB01C9
:1079A00080EEE82EF12CF70180818B7F8083F80137
:1079B00080818160808380E060E042E0A9DFE1EEC9
:1079C000F0E080818E7F8083E2EEF0E08081816054
:1079D0008083808188608083F70180818E7F8083AF
:1079E000F8018081806180831F910F91FF90EF905B
:1079F0000895E7EDF0E08081816080838AE482BFB2
:107A000081E08093BC01B6CFE8EDF0E080818E7F0D
:107A100080831092E20008951092DA001092E10043
:107A200008951F920F920FB60F9211242F933F9338
:107A30004F935F936F937F938F939F93AF93BF9376
:107A4000EF93FF938091DA0080FF1BC08091D800F4
:107A500080FF17C08091DA008E7F8093DA008091DA
:107A6000D90080FF0BC080E189BD82E189BD09B4E6
:107A700000FEFDCF81E08EBB3BD203C019BC1EBA15
:107A800037D28091E10080FF17C08091E20080FF33
:107A900013C08091E2008E7F8093E2008091E2002B
:107AA00080618093E2008091D80080628093D8004A
:107AB00019BC85E08EBB1CD28091E10084FF2CC0F4
:107AC0008091E20084FF28C080E189BD82E189BD08
:107AD00009B400FEFDCF8091D8008F7D8093D8003F
:107AE0008091E1008F7E8093E1008091E2008F7EA3
:107AF0008093E2008091E20081608093E2008091B7
:107B0000BB01882331F48091E30087FD02C081E04E
:107B100001C084E08EBBECD18091E10083FF21C0E5
:107B20008091E20083FF1DC08091E100877F8093F8
:107B3000E10082E08EBB1092BB018091E1008E7F5C
:107B40008093E1008091E2008E7F8093E20080913B
:107B5000E20080618093E20080E060E042E0D8DEF5
:107B6000C7D1FF91EF91BF91AF919F918F917F917D
:107B70006F915F914F913F912F910F900FBE0F909A
:107B80001F9018959C014091C3015091C401461764
:107B9000570718F4F90190E044C06115710511F020
:107BA000AB01F8CF8091E8008E778093E80040E049
:107BB00050E0F0CF8EB3882309F444C0853009F437
:107BC00043C08091E80083FF02C081E00895809166
:107BD000E80082FD31C08091E80080FF22C08091E2
:107BE000F3009091F200782F60E0292F30E0262BEF
:107BF000372B07C081918093F100415050402F5F97
:107C00003F4F4115510519F02830310598F390E0A8
:107C10002830310509F491E08091E8008E77809357
:107C2000E8004115510531F6992321F605C08EB3C0
:107C3000882341F0853041F08091E80082FFF7CF42
:107C400080E0089582E0089583E008959C01611525
:107C5000710529F48091E8008B778093E800F901A1
:107C600026C08EB3882391F1853091F18091E80090
:107C700083FF02C081E008958091E80082FFF1CF88
:107C800006C08091F10081936150704059F02091BD
:107C9000F3008091F200322F20E090E0822B932BB2
:107CA000892B79F78091E8008B778093E800611544
:107CB0007105B9F605C08EB3882341F0853041F0D7
:107CC0008091E80080FFF7CF80E0089582E008957A
:107CD00083E008950F931F93DF93CF9300D0CDB728
:107CE000DEB7EDEBF1E08091F100819381E0E53CBE
:107CF000F807C9F708DD8091E80083FFE4C08091B0
:107D0000BD019091BE01953009F46DC0963040F4EC
:107D1000913081F1913070F0933009F0D4C02AC0D5
:107D2000983009F4A3C0993009F4B2C0963009F034
:107D3000CAC07CC0803809F4C6C0823809F0C3C00C
:107D40008091C10187708093E9008091EB001092CF
:107D5000E9002091E800277F2093E80090E025E0EB
:107D6000969587952A95E1F781708093F10010929E
:107D7000F10087C0882319F0823009F0A4C08F7108
:107D8000823009F0A0C08091BF01882331F5209195
:107D9000C101277009F497C02093E9008091EB009E
:107DA00080FF1BC0933021F48091EB00806213C0F0
:107DB0008091EB0080618093EB0081E090E002C055
:107DC000880F991F2A95E2F78093EA001092EA0043
:107DD0008091EB0088608093EB001092E900809125
:107DE000E800877F51C0882309F06DC01091BF0162
:107DF0001F770FB7F8948091E800877F8093E800A1
:107E00009ADD8091E80080FFFCCF8091E3008078CC
:107E1000812B8093E30080688093E300112311F4A9
:107E200082E001C083E08EBB0FBF4DC0805882301E
:107E300008F049C08091BF019091C0016091C101DB
:107E4000AE014F5F5F4F36DDBC01009709F43BC0C8
:107E50008091E800877F8093E80089819A8192DE93
:107E60008091E8008B778093E8002DC0803859F529
:107E70008091E800877F8093E8008091BB01809328
:107E8000F1008091E8008E778093E80054DD1BC0FC
:107E90008823C9F49091BF019230A8F48091E80042
:107EA000877F8093E8009093BB0145DD8091BB0103
:107EB000882331F48091E30087FD02C081E001C096
:107EC00084E08EBB50DC8091E80083FF0AC0809183
:107ED000EB0080628093EB008091E800877F8093C5
:107EE000E8000F900F90CF91DF911F910F910895AF
:107EF00008951F938EB3882361F01091E9001092CA
:107F0000E9008091E80083FF01C0E4DE1770109360
:107F1000E9001F910895F999FECF92BD81BDF89AAD
:107F2000992780B50895262FF999FECF1FBA92BDE3
:107F300081BD20BD0FB6F894FA9AF99A0FBE01964A
:067F40000895F894FFCF44
:107F46004341544552494E41007700080000000065
:107F56000000080112011001020000084123380048
:107F660001000201000109023E00020100803209FF
:107F7600040000010202010005240010010424028D
:107F8600040524060001070582030800FF09040111
:107F960000020A000000070504021000010705831D
:107FA6000210000104030904280352006F00620056
:107FB6006F007400200043006F006E0074007200B2
:107FC6006F006C00200042006F00610072006400C8
:107FD60000001803410072006400750069006E001D
:0C7FE6006F0020004C004C004300000025
:040000030000700089
:00000001FF
