:100000000C94E3000C940B010C940B010C940B0169
:100010000C940B010C940B010C940B010C940B0130
:100020000C940B010C940B010C9423070C94B50554
:100030000C940B010C940B010C940B010C940B0110
:100040000C940B010C940B010C940B010C940B0100
:100050000C940B010C940B010C940B010C94A20258
:100060000C940B010C940B010C940B010C940B01E0
:100070000C940B010C940B010C940B010C940B01D0
:100080000C940B010C940B010C940B010C940B01C0
:100090000C940B010C940B010C940B010C940B01B0
:1000A0000C940B010C940B010C940B01D101D401A5
:1000B000C301C701CD01F501F501F501D801DC014E
:1000C000E001E601EA01F501F0010000000200098B
:1000D0000F0000030401000C0000000004080201EE
:1000E0001040804010204080408008020401804081
:1000F0002010020110801020404004040404040376
:1001000004050202020204030202020206060606B7
:100110000606040402020204000000002300260078
:1001200029002C002F0000000000250028002B00D3
:100130002E00310000000000240027002A002D00BE
:10014000300012010002EF0201404123398000011A
:100150000102030112010002000000404123398026
:1001600000010102030141726475696E6F204C4CFD
:100170004300526F626F74204D6F746F72000403FE
:100180000904080B00020202010009040000010238
:1001900002000005240010010524010101042402CD
:1001A000060524060001070581031000400904012B
:1001B00000020A0000000705020240000007058354
:1001C000024000009B0811241FBECFEFDAE0DEBF23
:1001D000CDBF11E0A0E0B1E0E6EBF2E102C0059096
:1001E0000D92A433B107D9F721E0A4E3B1E001C037
:1001F0001D92A83AB207E1F711E0C6ECD1E004C0C5
:100200002297FE010E945509C43CD107C9F70E94FC
:100210008F020C9459090C94000061E080910E014A
:100220000E94F60161E080910C010E94F60160E0FD
:1002300080910A010E94F60160E0809108010E940D
:10024000F60161E0809106010E94F60161E0809173
:1002500004010E94F60161E0809102010E94F60112
:1002600061E0809100010C94F60161E080910E0143
:100270000E942F0261E080910C010E942F02809168
:100280000A010E94650290933701809336018091A4
:1002900008010E94650290933501809334012091FA
:1002A0003601309137012130310571F4019761F445
:1002B00061E0809106010E942F0260E080910401BC
:1002C0000E942F0261E00BC060E0809106010E9455
:1002D0002F0260E0809104010E942F0260E0809173
:1002E00002010E942F0260E0809100010E942F0213
:1002F00080913601909137010197D1F480913401BA
:1003000090913501892BA1F461E0809106010E9452
:100310002F0260E0809104010E942F0260E0809132
:1003200002010E942F0261E0809100010E942F02D1
:100330008091360190913701892BD1F4809134015D
:10034000909135010197A1F460E0809106010E942F
:100350002F0261E0809104010E942F0261E08091F0
:1003600002010E942F0260E0809100010C942F0294
:10037000089590E0FC013197EF30F105B0F5EA5AAD
:10038000FF4F0C945309809180008F7703C08091B8
:1003900080008F7D80938000089580918000877F0A
:1003A000F9CF84B58F7702C084B58F7D84BD089561
:1003B000809190008F7707C0809190008F7D03C05F
:1003C00080919000877F8093900008958091C00075
:1003D0008F7703C08091C0008F7D8093C000089507
:1003E0008091C200877F8093C2000895CF93DF93EE
:1003F00090E0FC01E452FF4F2491FC01E650FF4FD6
:100400008491882349F190E0880F991FFC01EC5CEE
:10041000FE4FA591B4918A5D9E4FFC01C591D49188
:100420009FB7611108C0F8948C91209582238C931A
:10043000888182230AC0623051F4F8948C91322F63
:10044000309583238C938881822B888304C0F89411
:100450008C91822B8C939FBFDF91CF9108950F9346
:100460001F93CF93DF931F92CDB7DEB7282F30E0D5
:10047000F901E653FF4F8491F901E452FF4F1491C3
:10048000F901E650FF4F04910023C9F0882321F0C1
:1004900069830E94B9016981E02FF0E0EE0FFF1F30
:1004A000EA5DFE4FA591B4919FB7F8948C916111CC
:1004B00003C01095812301C0812B8C939FBF0F90A7
:1004C000DF91CF911F910F910895CF93DF93282F44
:1004D00030E0F901E653FF4F8491F901E452FF4FF8
:1004E000D491F901E650FF4FC491CC2391F08111D2
:1004F0000E94B901EC2FF0E0EE0FFF1FE85EFE4F07
:10050000A591B4912C912D2381E090E021F480E01D
:1005100002C080E090E0DF91CF91089508950E949D
:1005200037030E948E0281E491E00E94A6070E9498
:100530000D01C0E0D0E00E9435012097E1F30E9458
:100540000000F9CF1F920F920FB60F9211242F9334
:100550003F938F939F93AF93BF9380913901909175
:100560003A01A0913B01B0913C013091380123E068
:10057000230F2D3720F40196A11DB11D05C026E8DB
:10058000230F0296A11DB11D2093380180933901DC
:1005900090933A01A0933B01B0933C0180913D01BF
:1005A00090913E01A0913F01B09140010196A11DA3
:1005B000B11D80933D0190933E01A0933F01B09304
:1005C0004001BF91AF919F918F913F912F910F90DB
:1005D0000FBE0F901F9018953FB7F89480913D0182
:1005E00090913E01A0913F01B091400126B5A89B9A
:1005F00005C02F3F19F00196A11DB11D3FBF662711
:10060000782F892F9A2F620F711D811D911D42E055
:10061000660F771F881F991F4A95D1F70895CF92CB
:10062000DF92EF92FF92CF93DF936B017C010E94E8
:10063000EC02EB01C114D104E104F10489F00E9441
:10064000B9070E94EC026C1B7D0B683E734090F36F
:1006500081E0C81AD108E108F108C851DC4FEACF9F
:10066000DF91CF91FF90EF90DF90CF900895789435
:1006700084B5826084BD84B5816084BD85B58260A7
:1006800085BD85B5816085BDEEE6F0E08081816045
:100690008083E1E8F0E01082808182608083808145
:1006A00081608083E0E8F0E0808181608083E1E91F
:1006B000F0E0808182608083808181608083E0E9D6
:1006C000F0E0808181608083E1ECF0E080818460F3
:1006D0008083808182608083808181608083E3EC7D
:1006E000F0E0808181608083E0ECF0E080818260D6
:1006F0008083E2ECF0E0808181608083EAE7F0E0D3
:100700008081846080838081826080838081816039
:1007100080838081806880830895615030F02091CB
:10072000F100FC0120830196F8CF289884E680939D
:100730004A0108954091450150914601209143019D
:100740003091440142175307B4F49091E80095703A
:10075000E1F39091E80092FD19C08093F10080913F
:1007600045019091460101968F739927892B19F4C1
:100770008EEF8093E80080914501909146010196AB
:10078000909346018093450181E0089580E00895AB
:10079000CF92DF92EF92FF920F931F93CF93DF934D
:1007A0001F92CDB7DEB7082F162FF42E862F880F95
:1007B0008E5F99830E949A0383E00E949A03E02E41
:1007C000C02E9981D92E8C2D8E19811798F4F6019F
:1007D000F7FE02C0849101C080810E949A03082F15
:1007E00080E00E949A038023FFEFCF1ADF0A811175
:1007F000EACF01C081E00F90DF91CF911F910F915F
:10080000FF90EF90DF90CF9008958091D7008160A6
:100810008093D70080EA8093D80089B5806189BD34
:1008200089B5826089BD09B400FEFDCF61E070E04A
:1008300080E090E00E940F038091D8008F7C80615F
:100840008093D8008091E000807F8093E00008953D
:10085000CF93DF931F92CDB7DEB71982CE010196F9
:100860000E9417080E943F09BE016F5F7F4F0E94E0
:10087000B80889810F90DF91CF9108952FB7FC01BF
:100880002083F89467706093E9000895CF93DF9315
:100890001F92CDB7DEB7682FCE0101960E943E04AD
:1008A0008091F20099819FBF0F90DF91CF910895C1
:1008B000FF920F931F93CF93DF9300D0CDB7DEB796
:1008C000F62E8A0190914901992311F057FF03C038
:1008D0008FEF9FEF2BC0682FCE0101967A830E9485
:1008E0003E048091F20090E0A8017A818017910780
:1008F0000CF4AC01EF2DF72FF40E84E6FE1639F060
:10090000289880934A019091F1009193F7CF411577
:10091000510521F08091F200882321F089818FBF59
:10092000CA0104C08BE68093E800F8CF0F900F90C7
:10093000DF91CF911F910F91FF900895CF93DF9397
:100940001F92CDB7DEB741E050E0BE016F5F7F4F31
:100950000E945804019719F4898190E002C08FEF3A
:100960009FEF0F90DF91CF910895CF93DF931F9268
:10097000CDB7DEB7682FCE0101960E943E0490915C
:10098000E800892F807295FF04C09091F20080E406
:10099000891B99819FBF0F90DF91CF9108956F922E
:1009A0007F928F929F92AF92BF92CF92DF92EF92FF
:1009B000FF920F931F93CF93DF931F92CDB7DEB7B4
:1009C000782E7B01C42EB52E80914901882369F0D1
:1009D000042F152F8AEFD82E872D8072982E9AE338
:1009E000A92E872D8074882E11C08FEF9FEF57C0DE
:1009F000872D0E94B504682E81110CC0DA94A9F3EA
:100A000061E070E080E090E00E940F0301151105A5
:100A100079F73BC0282F30E0021713070CF4602E43
:100A2000672DCE0101960E943E048091E80085FF6B
:100A300029C0262D30E0021B130B992039F06A944F
:100A40008FEF6816B1F01092F100F9CFF701862D03
:100A500077FE07C0815058F094919093F100319641
:100A6000F9CF815020F091919093F100FACFE20EEE
:100A7000F31E8091E80085FF0FC00115110511F4E8
:100A800081100AC089818FBFC1CF5D9884E68093B1
:100A90004B018C2D9B2D03C0A092E800F3CF0F904B
:100AA000DF91CF911F910F91FF90EF90DF90CF904A
:100AB000BF90AF909F908F907F906F90089510920D
:100AC000E9001092460110924501909344018093F1
:100AD00043010895CF92DF92FF920F931F93CF931C
:100AE000DF9300D0CDB7DEB7F82E8A016B01011578
:100AF0001105B1F0F601F7FE02C0849101C08081BA
:100B000049835A830E949A0301501109FFEFCF1ABB
:100B1000DF0A49815A818111EACF8FEF9FEF01C02F
:100B2000CA010F900F90DF91CF911F910F91FF900D
:100B3000DF90CF9008951F93CF93DF931F92CDB78F
:100B4000DEB7162F2091E80022FFFCCF612F7983BA
:100B50000E948D038BEF8093E800812F7981972F7E
:100B60000F90DF91CF911F9108951F920F920FB6B2
:100B70000F921124DF92EF92FF920F931F932F9306
:100B80003F934F935F936F937F938F939F93AF9315
:100B9000BF93EF93FF93CF93DF93CDB7DEB76C97FF
:100BA000DEBFCDBF1092E9008091E80083FF23C132
:100BB00068E0CE0145960E948D0382EF8093E800A5
:100BC0003D8937FF05C08091E80080FFFCCF03C05E
:100BD0008EEF8093E800832F807609F0F0C02E8995
:100BE0004F89D88C21110CC0303829F480914801EC
:100BF0008093F10002C01092F1001092F100F4C055
:100C0000842F90E09D29213049F43111EDC00197E6
:100C100009F0EAC0809148018D7F0AC0233059F461
:100C20003111E2C0019709F0DFC080914801826074
:100C300080934801D9C0253041F48091E80080FFBD
:100C4000FCCF40684093E300CFC0263009F08DC050
:100C5000EB8CFC8C22E0D2122CC080E090E00E9451
:100C60005F050E94280499E08E010F5F1F4FF80175
:100C7000292F11922A95E9F79983DA8291E09E83D0
:100C800090EA98879AEF9987209145013091460123
:100C9000275F3F4F3C832B838D83C7010E945F05F5
:100CA00049E050E0B80180E00E946A050E942804F3
:100CB0009BC0C7010E945F050E943F09BE016B5E99
:100CC0007F4F0E94E108009719F00CF08DC090C092
:100CD00081E0D8120EC08B8D9C8D089719F481E0AD
:100CE000809342018091420181112FC064E571E03F
:100CF00031C0E3E0DE127CC08F89882349F1823065
:100D000029F440E86BE082E791E01CC0813029F4CF
:100D100040E86BE086E691E015C0833009F068C0DA
:100D20000E943F098E010F5F1F4FB8010E9400090A
:100D3000F80101900020E9F73197E01BF10B40E04A
:100D40006E2FC8010E94C8034DC062E471E002C06A
:100D50006EE771E06115710509F44AC0FB01449129
:100D600050E080E80E946A053FC0273009F440C087
:100D7000283021F481E08093F10036C02930A1F5BC
:100D80003370B1F5E1E1F1E081E021E036E39081FB
:100D9000992361F08093E9002093EB009191909367
:100DA000EC003093ED008F5F873089F78EE78093FA
:100DB000EA001092EA008F898093490115C08B8D5B
:100DC0009C8D0E945F05898D811105C0CE014596DD
:100DD0000E94220807C00E943F09BE016B5E7F4F40
:100DE0000E941F09882321F08EEF8093E80003C042
:100DF00081E28093EB006C960FB6F894DEBF0FBED5
:100E0000CDBFDF91CF91FF91EF91BF91AF919F91B6
:100E10008F917F916F915F914F913F912F911F9192
:100E20000F91FF90EF90DF900F900FBE0F901F90EB
:100E300018958093E9008091F200882319F08AE3E5
:100E40008093E80008951F920F920FB60F9211241D
:100E50002F933F934F935F936F937F938F939F93C2
:100E6000AF93BF93CF93EF93FF93C091E100809135
:100E7000E100837F8093E1008093E100C3FF0FC016
:100E80001092E90081E08093EB001092EC0082E385
:100E90008093ED001092490188E08093F000C2FF3A
:100EA00019C083E00E94190780914B01882339F013
:100EB00080914B01815080934B01882389F180916F
:100EC0004A01882339F080914A01815080934A0178
:100ED000882341F1C4FF10C08091E2008E7E8160C2
:100EE0008093E2008091E1008F7E8093E100809109
:100EF00047018E7E806111C0C0FF16C08091E20064
:100F00008E7E80618093E2008091E1008E7E8093EE
:100F1000E100809147018E7E81608093470104C08B
:100F20005D9ACDCF289AD6CFFF91EF91CF91BF9107
:100F3000AF919F918F917F916F915F914F913F9171
:100F40002F910F900FBE0F901F901895109249018E
:100F500010924801109247010E940504E1EEF0E072
:100F600080818E7E80838DE08093E200559A209A66
:100F700008950895CF93DF931F92CDB7DEB76983AD
:100F8000DC01ED91FC910280F381E02D41E050E025
:100F9000BE016F5F7F4F09950F90DF91CF9108954C
:100FA000CF93DF93EC018C859D8597FF05C082E090
:100FB0000E949E049D878C878C859D85DF91CF91B3
:100FC000089583E00C941907FC018485958597FDAD
:100FD00006C082E00E94460490E00196089582E0F7
:100FE0000E94460490E00895FC018485958597FD54
:100FF00005C02FEF3FEF35872487089582E00C94DA
:101000009E04CF93DF93EC0180912201882331F07D
:1010100083E00E94CF041816190634F081E090E0B6
:101020009B838A8380E090E0DF91CF910895FC015B
:1010300020812E5F208342E450E062E871E080E886
:101040000C946A05FC0121818081813A59F4213296
:1010500009F05CC047E050E06BE171E080E00E9485
:101060006A0567C0813209F051C0233289F4838157
:1010700090E0982F88273281832BA0E0B0E0809306
:10108000170190931801A0931901B0931A010FC092
:10109000203239F467E070E08BE191E00E949B051B
:1010A0000AC0223221F482818093220104C02D7F64
:1010B000203209F03EC080911B0190911C01A0914B
:1010C0001D01B0911E01803B9440A105B10501F5C1
:1010D0008091220180FD1CC0809100089091010840
:1010E0009093FF0A8093FE0A87E797E790930108A1
:1010F000809300082BE088E190E00FB6F894A89563
:10110000809360000FBE2093600013C080E00895BC
:1011100088E10FB6F89480936000109260000FBED3
:10112000A8958091FE0A9091FF0A90930108809300
:10113000000881E0089510924F0110924E0188EE50
:1011400093E0A0E0B0E08093500190935101A09310
:101150005201B093530187E291E090934D01809347
:101160004C018FEF9FEF90935901809358010895A0
:10117000EF92FF920F931F93CF93DF937B01FC01BC
:10118000C281D38100E010E0209781F0E881F981ED
:101190000280F381E02DB701CE01099597FD08C0CB
:1011A000080F191F0884D985C02DEECFC80102C0D1
:1011B0008FEF9FEFDF91CF911F910F91FF90EF90F5
:1011C00008950F931F93CF93DF938B01FC01C2818E
:1011D000D381209771F0E881F9810480F581E02DB9
:1011E000B801CE010995009731F40884D985C02D46
:1011F000F0CF80E090E0DF91CF911F910F910895A3
:101200000F931F93CF93DF938B01FC01C281D38196
:10121000209771F0E881F9810680F781E02DB8010F
:10122000CE010995080F111D0884D985C02DF0CF76
:10123000F8011082DF91CF911F910F9108950F93C4
:101240001F93CF93DF938B01FC01C281D381209741
:1012500071F0E881F9810190F081E02DB801CE01B3
:101260000995811106C00884D985C02DF0CF80E092
:1012700001C081E0DF91CF911F910F91089580917E
:10128000A00181110DC082E080939C0184E08093D5
:101290009D0110929F0110929E0181E08093A00118
:1012A0008CE991E00895EE0FFF1F0590F491E02D79
:0612B0000994F894FFCF41
:1012B60007000600050004000C000B0002000100F8
:1012C60000C18081000000FFFFFFFF00E100000079
:1012D60000000000000000BA070108E407F407D088
:0412E60007E1070015
:00000001FF
